{
  "_format": "hh-sol-artifact-1",
  "contractName": "RealEstateToken",
  "sourceName": "Contracts/RealEstateToken.sol",
  "abi": [
    {
      "inputs": [],
      "stateMutability": "nonpayable",
      "type": "constructor"
    },
    {
      "inputs": [
        {
          "internalType": "address",
          "name": "sender",
          "type": "address"
        },
        {
          "internalType": "uint256",
          "name": "tokenId",
          "type": "uint256"
        },
        {
          "internalType": "address",
          "name": "owner",
          "type": "address"
        }
      ],
      "name": "ERC721IncorrectOwner",
      "type": "error"
    },
    {
      "inputs": [
        {
          "internalType": "address",
          "name": "operator",
          "type": "address"
        },
        {
          "internalType": "uint256",
          "name": "tokenId",
          "type": "uint256"
        }
      ],
      "name": "ERC721InsufficientApproval",
      "type": "error"
    },
    {
      "inputs": [
        {
          "internalType": "address",
          "name": "approver",
          "type": "address"
        }
      ],
      "name": "ERC721InvalidApprover",
      "type": "error"
    },
    {
      "inputs": [
        {
          "internalType": "address",
          "name": "operator",
          "type": "address"
        }
      ],
      "name": "ERC721InvalidOperator",
      "type": "error"
    },
    {
      "inputs": [
        {
          "internalType": "address",
          "name": "owner",
          "type": "address"
        }
      ],
      "name": "ERC721InvalidOwner",
      "type": "error"
    },
    {
      "inputs": [
        {
          "internalType": "address",
          "name": "receiver",
          "type": "address"
        }
      ],
      "name": "ERC721InvalidReceiver",
      "type": "error"
    },
    {
      "inputs": [
        {
          "internalType": "address",
          "name": "sender",
          "type": "address"
        }
      ],
      "name": "ERC721InvalidSender",
      "type": "error"
    },
    {
      "inputs": [
        {
          "internalType": "uint256",
          "name": "tokenId",
          "type": "uint256"
        }
      ],
      "name": "ERC721NonexistentToken",
      "type": "error"
    },
    {
      "inputs": [
        {
          "internalType": "address",
          "name": "owner",
          "type": "address"
        }
      ],
      "name": "OwnableInvalidOwner",
      "type": "error"
    },
    {
      "inputs": [
        {
          "internalType": "address",
          "name": "account",
          "type": "address"
        }
      ],
      "name": "OwnableUnauthorizedAccount",
      "type": "error"
    },
    {
      "anonymous": false,
      "inputs": [
        {
          "indexed": true,
          "internalType": "address",
          "name": "owner",
          "type": "address"
        },
        {
          "indexed": true,
          "internalType": "address",
          "name": "approved",
          "type": "address"
        },
        {
          "indexed": true,
          "internalType": "uint256",
          "name": "tokenId",
          "type": "uint256"
        }
      ],
      "name": "Approval",
      "type": "event"
    },
    {
      "anonymous": false,
      "inputs": [
        {
          "indexed": true,
          "internalType": "address",
          "name": "owner",
          "type": "address"
        },
        {
          "indexed": true,
          "internalType": "address",
          "name": "operator",
          "type": "address"
        },
        {
          "indexed": false,
          "internalType": "bool",
          "name": "approved",
          "type": "bool"
        }
      ],
      "name": "ApprovalForAll",
      "type": "event"
    },
    {
      "anonymous": false,
      "inputs": [
        {
          "indexed": true,
          "internalType": "address",
          "name": "previousOwner",
          "type": "address"
        },
        {
          "indexed": true,
          "internalType": "address",
          "name": "newOwner",
          "type": "address"
        }
      ],
      "name": "OwnershipTransferred",
      "type": "event"
    },
    {
      "anonymous": false,
      "inputs": [
        {
          "indexed": true,
          "internalType": "uint256",
          "name": "id",
          "type": "uint256"
        },
        {
          "indexed": true,
          "internalType": "address",
          "name": "buyer",
          "type": "address"
        },
        {
          "indexed": false,
          "internalType": "uint256",
          "name": "price",
          "type": "uint256"
        }
      ],
      "name": "PropertyBought",
      "type": "event"
    },
    {
      "anonymous": false,
      "inputs": [
        {
          "indexed": true,
          "internalType": "uint256",
          "name": "id",
          "type": "uint256"
        },
        {
          "indexed": false,
          "internalType": "string",
          "name": "location",
          "type": "string"
        },
        {
          "indexed": false,
          "internalType": "uint256",
          "name": "price",
          "type": "uint256"
        }
      ],
      "name": "PropertyListed",
      "type": "event"
    },
    {
      "anonymous": false,
      "inputs": [
        {
          "indexed": true,
          "internalType": "uint256",
          "name": "id",
          "type": "uint256"
        },
        {
          "indexed": false,
          "internalType": "uint256",
          "name": "price",
          "type": "uint256"
        }
      ],
      "name": "PropertyRelisted",
      "type": "event"
    },
    {
      "anonymous": false,
      "inputs": [
        {
          "indexed": true,
          "internalType": "address",
          "name": "from",
          "type": "address"
        },
        {
          "indexed": true,
          "internalType": "address",
          "name": "to",
          "type": "address"
        },
        {
          "indexed": true,
          "internalType": "uint256",
          "name": "tokenId",
          "type": "uint256"
        }
      ],
      "name": "Transfer",
      "type": "event"
    },
    {
      "inputs": [
        {
          "internalType": "address",
          "name": "to",
          "type": "address"
        },
        {
          "internalType": "uint256",
          "name": "tokenId",
          "type": "uint256"
        }
      ],
      "name": "approve",
      "outputs": [],
      "stateMutability": "nonpayable",
      "type": "function"
    },
    {
      "inputs": [
        {
          "internalType": "address",
          "name": "owner",
          "type": "address"
        }
      ],
      "name": "balanceOf",
      "outputs": [
        {
          "internalType": "uint256",
          "name": "",
          "type": "uint256"
        }
      ],
      "stateMutability": "view",
      "type": "function"
    },
    {
      "inputs": [
        {
          "internalType": "uint256",
          "name": "tokenId",
          "type": "uint256"
        }
      ],
      "name": "burn",
      "outputs": [],
      "stateMutability": "nonpayable",
      "type": "function"
    },
    {
      "inputs": [
        {
          "internalType": "uint256",
          "name": "propertyId",
          "type": "uint256"
        }
      ],
      "name": "buyProperty",
      "outputs": [],
      "stateMutability": "payable",
      "type": "function"
    },
    {
      "inputs": [
        {
          "internalType": "uint256",
          "name": "tokenId",
          "type": "uint256"
        }
      ],
      "name": "getApproved",
      "outputs": [
        {
          "internalType": "address",
          "name": "",
          "type": "address"
        }
      ],
      "stateMutability": "view",
      "type": "function"
    },
    {
      "inputs": [
        {
          "internalType": "address",
          "name": "owner",
          "type": "address"
        },
        {
          "internalType": "address",
          "name": "operator",
          "type": "address"
        }
      ],
      "name": "isApprovedForAll",
      "outputs": [
        {
          "internalType": "bool",
          "name": "",
          "type": "bool"
        }
      ],
      "stateMutability": "view",
      "type": "function"
    },
    {
      "inputs": [
        {
          "internalType": "string",
          "name": "_location",
          "type": "string"
        },
        {
          "internalType": "uint256",
          "name": "_price",
          "type": "uint256"
        }
      ],
      "name": "listProperty",
      "outputs": [],
      "stateMutability": "nonpayable",
      "type": "function"
    },
    {
      "inputs": [],
      "name": "name",
      "outputs": [
        {
          "internalType": "string",
          "name": "",
          "type": "string"
        }
      ],
      "stateMutability": "view",
      "type": "function"
    },
    {
      "inputs": [],
      "name": "owner",
      "outputs": [
        {
          "internalType": "address",
          "name": "",
          "type": "address"
        }
      ],
      "stateMutability": "view",
      "type": "function"
    },
    {
      "inputs": [
        {
          "internalType": "uint256",
          "name": "tokenId",
          "type": "uint256"
        }
      ],
      "name": "ownerOf",
      "outputs": [
        {
          "internalType": "address",
          "name": "",
          "type": "address"
        }
      ],
      "stateMutability": "view",
      "type": "function"
    },
    {
      "inputs": [
        {
          "internalType": "uint256",
          "name": "",
          "type": "uint256"
        }
      ],
      "name": "properties",
      "outputs": [
        {
          "internalType": "uint256",
          "name": "id",
          "type": "uint256"
        },
        {
          "internalType": "string",
          "name": "location",
          "type": "string"
        },
        {
          "internalType": "uint256",
          "name": "price",
          "type": "uint256"
        },
        {
          "internalType": "bool",
          "name": "isListed",
          "type": "bool"
        }
      ],
      "stateMutability": "view",
      "type": "function"
    },
    {
      "inputs": [],
      "name": "renounceOwnership",
      "outputs": [],
      "stateMutability": "nonpayable",
      "type": "function"
    },
    {
      "inputs": [
        {
          "internalType": "address",
          "name": "from",
          "type": "address"
        },
        {
          "internalType": "address",
          "name": "to",
          "type": "address"
        },
        {
          "internalType": "uint256",
          "name": "tokenId",
          "type": "uint256"
        }
      ],
      "name": "safeTransferFrom",
      "outputs": [],
      "stateMutability": "nonpayable",
      "type": "function"
    },
    {
      "inputs": [
        {
          "internalType": "address",
          "name": "from",
          "type": "address"
        },
        {
          "internalType": "address",
          "name": "to",
          "type": "address"
        },
        {
          "internalType": "uint256",
          "name": "tokenId",
          "type": "uint256"
        },
        {
          "internalType": "bytes",
          "name": "data",
          "type": "bytes"
        }
      ],
      "name": "safeTransferFrom",
      "outputs": [],
      "stateMutability": "nonpayable",
      "type": "function"
    },
    {
      "inputs": [
        {
          "internalType": "address",
          "name": "operator",
          "type": "address"
        },
        {
          "internalType": "bool",
          "name": "approved",
          "type": "bool"
        }
      ],
      "name": "setApprovalForAll",
      "outputs": [],
      "stateMutability": "nonpayable",
      "type": "function"
    },
    {
      "inputs": [
        {
          "internalType": "uint256",
          "name": "propertyId",
          "type": "uint256"
        },
        {
          "internalType": "uint256",
          "name": "newPrice",
          "type": "uint256"
        }
      ],
      "name": "setForSale",
      "outputs": [],
      "stateMutability": "nonpayable",
      "type": "function"
    },
    {
      "inputs": [
        {
          "internalType": "bytes4",
          "name": "interfaceId",
          "type": "bytes4"
        }
      ],
      "name": "supportsInterface",
      "outputs": [
        {
          "internalType": "bool",
          "name": "",
          "type": "bool"
        }
      ],
      "stateMutability": "view",
      "type": "function"
    },
    {
      "inputs": [],
      "name": "symbol",
      "outputs": [
        {
          "internalType": "string",
          "name": "",
          "type": "string"
        }
      ],
      "stateMutability": "view",
      "type": "function"
    },
    {
      "inputs": [
        {
          "internalType": "uint256",
          "name": "tokenId",
          "type": "uint256"
        }
      ],
      "name": "tokenURI",
      "outputs": [
        {
          "internalType": "string",
          "name": "",
          "type": "string"
        }
      ],
      "stateMutability": "view",
      "type": "function"
    },
    {
      "inputs": [
        {
          "internalType": "address",
          "name": "from",
          "type": "address"
        },
        {
          "internalType": "address",
          "name": "to",
          "type": "address"
        },
        {
          "internalType": "uint256",
          "name": "tokenId",
          "type": "uint256"
        }
      ],
      "name": "transferFrom",
      "outputs": [],
      "stateMutability": "nonpayable",
      "type": "function"
    },
    {
      "inputs": [
        {
          "internalType": "address",
          "name": "newOwner",
          "type": "address"
        }
      ],
      "name": "transferOwnership",
      "outputs": [],
      "stateMutability": "nonpayable",
      "type": "function"
    }
  ],
  "bytecode": "0x60806040523480156200001157600080fd5b50336040518060400160405280600f81526020016e2932b0b622b9ba30ba32aa37b5b2b760891b8152506040518060400160405280600381526020016214915560ea1b8152508160009081620000689190620001b2565b506001620000778282620001b2565b5050506001600160a01b038116620000a957604051631e4fbdf760e01b81526000600482015260240160405180910390fd5b620000b481620000bb565b506200027e565b600680546001600160a01b038381166001600160a01b0319831681179093556040519116919082907f8be0079c531659141344cd1fd0a4f28419497f9722a3daafe3b4186f6b6457e090600090a35050565b634e487b7160e01b600052604160045260246000fd5b600181811c908216806200013857607f821691505b6020821081036200015957634e487b7160e01b600052602260045260246000fd5b50919050565b601f821115620001ad57600081815260208120601f850160051c81016020861015620001885750805b601f850160051c820191505b81811015620001a95782815560010162000194565b5050505b505050565b81516001600160401b03811115620001ce57620001ce6200010d565b620001e681620001df845462000123565b846200015f565b602080601f8311600181146200021e5760008415620002055750858301515b600019600386901b1c1916600185901b178555620001a9565b600085815260208120601f198616915b828110156200024f578886015182559484019460019091019084016200022e565b50858210156200026e5787850151600019600388901b60f8161c191681555b5050505050600190811b01905550565b611a97806200028e6000396000f3fe60806040526004361061012a5760003560e01c806370a08231116100ab578063b88d4fde1161006f578063b88d4fde14610329578063c87b56dd14610349578063de9476ad14610369578063e985e9c514610389578063f2fde38b146103a9578063f7b10808146103c957600080fd5b806370a0823114610293578063715018a6146102c15780638da5cb5b146102d657806395d89b41146102f4578063a22cb4651461030957600080fd5b806323b872dd116100f257806323b872dd1461020057806342842e0e1461022057806342966c68146102405780636352211e146102605780636fa830a61461028057600080fd5b806301ffc9a71461012f57806306fdde0314610164578063081812fc14610186578063095ea7b3146101be57806317fcfe22146101e0575b600080fd5b34801561013b57600080fd5b5061014f61014a3660046114fc565b6103f9565b60405190151581526020015b60405180910390f35b34801561017057600080fd5b5061017961044b565b60405161015b9190611569565b34801561019257600080fd5b506101a66101a136600461157c565b6104dd565b6040516001600160a01b03909116815260200161015b565b3480156101ca57600080fd5b506101de6101d93660046115b1565b610506565b005b3480156101ec57600080fd5b506101de6101fb3660046115db565b610515565b34801561020c57600080fd5b506101de61021b3660046115fd565b610639565b34801561022c57600080fd5b506101de61023b3660046115fd565b6106c4565b34801561024c57600080fd5b506101de61025b36600461157c565b6106e4565b34801561026c57600080fd5b506101a661027b36600461157c565b6107b5565b6101de61028e36600461157c565b6107c0565b34801561029f57600080fd5b506102b36102ae366004611639565b61096d565b60405190815260200161015b565b3480156102cd57600080fd5b506101de6109b5565b3480156102e257600080fd5b506006546001600160a01b03166101a6565b34801561030057600080fd5b506101796109c9565b34801561031557600080fd5b506101de610324366004611654565b6109d8565b34801561033557600080fd5b506101de61034436600461171c565b6109e3565b34801561035557600080fd5b5061017961036436600461157c565b6109fb565b34801561037557600080fd5b506101de610384366004611798565b610a70565b34801561039557600080fd5b5061014f6103a43660046117f1565b610b47565b3480156103b557600080fd5b506101de6103c4366004611639565b610b75565b3480156103d557600080fd5b506103e96103e436600461157c565b610bb3565b60405161015b9493929190611824565b60006001600160e01b031982166380ac58cd60e01b148061042a57506001600160e01b03198216635b5e139f60e01b145b8061044557506301ffc9a760e01b6001600160e01b03198316145b92915050565b60606000805461045a90611855565b80601f016020809104026020016040519081016040528092919081815260200182805461048690611855565b80156104d35780601f106104a8576101008083540402835291602001916104d3565b820191906000526020600020905b8154815290600101906020018083116104b657829003601f168201915b5050505050905090565b60006104e882610c68565b506000828152600460205260409020546001600160a01b0316610445565b610511828233610ca1565b5050565b3361051f836107b5565b6001600160a01b0316146105865760405162461bcd60e51b8152602060048201526024808201527f4f6e6c7920746865206f776e65722063616e206c697374207468652070726f706044820152636572747960e01b60648201526084015b60405180910390fd5b600081116105d65760405162461bcd60e51b815260206004820152601f60248201527f5072696365206d7573742062652067726561746572207468616e207a65726f00604482015260640161057d565b6000828152600860205260409081902060038101805460ff191660011790556002018290555182907f14933483ce9c94d1037005d06418dc5e47bb18452b4ab35baf546b1ea11ce7099061062d9084815260200190565b60405180910390a25050565b6001600160a01b03821661066357604051633250574960e11b81526000600482015260240161057d565b6000610670838333610cae565b9050836001600160a01b0316816001600160a01b0316146106be576040516364283d7b60e01b81526001600160a01b038086166004830152602482018490528216604482015260640161057d565b50505050565b6106df838383604051806020016040528060008152506109e3565b505050565b336106ee826107b5565b6001600160a01b03161480610713575033610708826104dd565b6001600160a01b0316145b8061072b575061072b610725826107b5565b33610b47565b6107775760405162461bcd60e51b815260206004820181905260248201527f43616c6c6572206973206e6f74206f776e6572206e6f7220617070726f766564604482015260640161057d565b61078081610da7565b60008181526008602052604081208181559061079f6001830182611498565b5060006002820155600301805460ff1916905550565b600061044582610c68565b6000818152600860205260409020600381015460ff166108225760405162461bcd60e51b815260206004820152601860248201527f50726f7065727479206973206e6f7420666f722073616c650000000000000000604482015260640161057d565b806002015434101561086b5760405162461bcd60e51b8152602060048201526012602482015271496e73756666696369656e742066756e647360701b604482015260640161057d565b6000610876836107b5565b9050610883813385610de2565b60038201805460ff191690556040516000906001600160a01b0383169034908381818185875af1925050503d80600081146108da576040519150601f19603f3d011682016040523d82523d6000602084013e6108df565b606091505b50509050806109305760405162461bcd60e51b815260206004820152601760248201527f5061796d656e74207472616e73666572206661696c6564000000000000000000604482015260640161057d565b604051348152339085907f290f2083cde0be163feaae46ca85fea0ffc5f20ab98f90fcc19040a6f9a192559060200160405180910390a350505050565b60006001600160a01b038216610999576040516322718ad960e21b81526000600482015260240161057d565b506001600160a01b031660009081526003602052604090205490565b6109bd610e92565b6109c76000610ebf565b565b60606001805461045a90611855565b610511338383610f11565b6109ee848484610639565b6106be3385858585610fb0565b6060610a0682610c68565b506000610a1e60408051602081019091526000815290565b90506000815111610a3e5760405180602001604052806000815250610a69565b80610a48846110db565b604051602001610a5992919061188f565b6040516020818303038152906040525b9392505050565b610a78610e92565b6000610a8360075490565b9050610a8f600761116e565b60408051608081018252828152602080820186815282840186905260016060840181905260008681526008909352939091208251815590519192909190820190610ad99082611904565b50604082015160028201556060909101516003909101805460ff1916911515919091179055610b08338261118b565b807fb906962cbf3f3ecd490633cbf2018014c57107262f8d80f40a11ca0e8b31f2aa8484604051610b3a9291906119c4565b60405180910390a2505050565b6001600160a01b03918216600090815260056020908152604080832093909416825291909152205460ff1690565b610b7d610e92565b6001600160a01b038116610ba757604051631e4fbdf760e01b81526000600482015260240161057d565b610bb081610ebf565b50565b60086020526000908152604090208054600182018054919291610bd590611855565b80601f0160208091040260200160405190810160405280929190818152602001828054610c0190611855565b8015610c4e5780601f10610c2357610100808354040283529160200191610c4e565b820191906000526020600020905b815481529060010190602001808311610c3157829003601f168201915b50505050600283015460039093015491929160ff16905084565b6000818152600260205260408120546001600160a01b03168061044557604051637e27328960e01b81526004810184905260240161057d565b6106df83838360016111f0565b6000828152600260205260408120546001600160a01b0390811690831615610cdb57610cdb8184866112f6565b6001600160a01b03811615610d1957610cf86000856000806111f0565b6001600160a01b038116600090815260036020526040902080546000190190555b6001600160a01b03851615610d48576001600160a01b0385166000908152600360205260409020805460010190555b60008481526002602052604080822080546001600160a01b0319166001600160a01b0389811691821790925591518793918516917fddf252ad1be2c89b69c2b068fc378daa952ba7f163c4a11628f55a4df523b3ef91a4949350505050565b6000610db66000836000610cae565b90506001600160a01b03811661051157604051637e27328960e01b81526004810183905260240161057d565b6001600160a01b038216610e0c57604051633250574960e11b81526000600482015260240161057d565b6000610e1a83836000610cae565b90506001600160a01b038116610e4657604051637e27328960e01b81526004810183905260240161057d565b836001600160a01b0316816001600160a01b0316146106be576040516364283d7b60e01b81526001600160a01b038086166004830152602482018490528216604482015260640161057d565b6006546001600160a01b031633146109c75760405163118cdaa760e01b815233600482015260240161057d565b600680546001600160a01b038381166001600160a01b0319831681179093556040519116919082907f8be0079c531659141344cd1fd0a4f28419497f9722a3daafe3b4186f6b6457e090600090a35050565b6001600160a01b038216610f4357604051630b61174360e31b81526001600160a01b038316600482015260240161057d565b6001600160a01b03838116600081815260056020908152604080832094871680845294825291829020805460ff191686151590811790915591519182527f17307eab39ab6107e8899845ad3d59bd9653f200f220920489ca2b5937696c31910160405180910390a3505050565b6001600160a01b0383163b156110d457604051630a85bd0160e11b81526001600160a01b0384169063150b7a0290610ff29088908890879087906004016119e6565b6020604051808303816000875af192505050801561102d575060408051601f3d908101601f1916820190925261102a91810190611a23565b60015b611096573d80801561105b576040519150601f19603f3d011682016040523d82523d6000602084013e611060565b606091505b50805160000361108e57604051633250574960e11b81526001600160a01b038516600482015260240161057d565b805181602001fd5b6001600160e01b03198116630a85bd0160e11b146110d257604051633250574960e11b81526001600160a01b038516600482015260240161057d565b505b5050505050565b606060006110e88361135a565b600101905060008167ffffffffffffffff81111561110857611108611690565b6040519080825280601f01601f191660200182016040528015611132576020820181803683370190505b5090508181016020015b600019016f181899199a1a9b1b9c1cb0b131b232b360811b600a86061a8153600a850494508461113c57509392505050565b60018160000160008282546111839190611a40565b909155505050565b6001600160a01b0382166111b557604051633250574960e11b81526000600482015260240161057d565b60006111c383836000610cae565b90506001600160a01b038116156106df576040516339e3563760e11b81526000600482015260240161057d565b808061120457506001600160a01b03821615155b156112c657600061121484610c68565b90506001600160a01b038316158015906112405750826001600160a01b0316816001600160a01b031614155b801561125357506112518184610b47565b155b1561127c5760405163a9fbf51f60e01b81526001600160a01b038416600482015260240161057d565b81156112c45783856001600160a01b0316826001600160a01b03167f8c5be1e5ebec7d5bd14f71427d1e84f3dd0314c0f7b2291e5b200ac8c7c3b92560405160405180910390a45b505b5050600090815260046020526040902080546001600160a01b0319166001600160a01b0392909216919091179055565b611301838383611432565b6106df576001600160a01b03831661132f57604051637e27328960e01b81526004810182905260240161057d565b60405163177e802f60e01b81526001600160a01b03831660048201526024810182905260440161057d565b60008072184f03e93ff9f4daa797ed6e38ed64bf6a1f0160401b83106113995772184f03e93ff9f4daa797ed6e38ed64bf6a1f0160401b830492506040015b6d04ee2d6d415b85acef810000000083106113c5576d04ee2d6d415b85acef8100000000830492506020015b662386f26fc1000083106113e357662386f26fc10000830492506010015b6305f5e10083106113fb576305f5e100830492506008015b612710831061140f57612710830492506004015b60648310611421576064830492506002015b600a83106104455760010192915050565b60006001600160a01b038316158015906114905750826001600160a01b0316846001600160a01b0316148061146c575061146c8484610b47565b8061149057506000828152600460205260409020546001600160a01b038481169116145b949350505050565b5080546114a490611855565b6000825580601f106114b4575050565b601f016020900490600052602060002090810190610bb091905b808211156114e257600081556001016114ce565b5090565b6001600160e01b031981168114610bb057600080fd5b60006020828403121561150e57600080fd5b8135610a69816114e6565b60005b8381101561153457818101518382015260200161151c565b50506000910152565b60008151808452611555816020860160208601611519565b601f01601f19169290920160200192915050565b602081526000610a69602083018461153d565b60006020828403121561158e57600080fd5b5035919050565b80356001600160a01b03811681146115ac57600080fd5b919050565b600080604083850312156115c457600080fd5b6115cd83611595565b946020939093013593505050565b600080604083850312156115ee57600080fd5b50508035926020909101359150565b60008060006060848603121561161257600080fd5b61161b84611595565b925061162960208501611595565b9150604084013590509250925092565b60006020828403121561164b57600080fd5b610a6982611595565b6000806040838503121561166757600080fd5b61167083611595565b91506020830135801515811461168557600080fd5b809150509250929050565b634e487b7160e01b600052604160045260246000fd5b600067ffffffffffffffff808411156116c1576116c1611690565b604051601f8501601f19908116603f011681019082821181831017156116e9576116e9611690565b8160405280935085815286868601111561170257600080fd5b858560208301376000602087830101525050509392505050565b6000806000806080858703121561173257600080fd5b61173b85611595565b935061174960208601611595565b925060408501359150606085013567ffffffffffffffff81111561176c57600080fd5b8501601f8101871361177d57600080fd5b61178c878235602084016116a6565b91505092959194509250565b600080604083850312156117ab57600080fd5b823567ffffffffffffffff8111156117c257600080fd5b8301601f810185136117d357600080fd5b6117e2858235602084016116a6565b95602094909401359450505050565b6000806040838503121561180457600080fd5b61180d83611595565b915061181b60208401611595565b90509250929050565b84815260806020820152600061183d608083018661153d565b60408301949094525090151560609091015292915050565b600181811c9082168061186957607f821691505b60208210810361188957634e487b7160e01b600052602260045260246000fd5b50919050565b600083516118a1818460208801611519565b8351908301906118b5818360208801611519565b01949350505050565b601f8211156106df57600081815260208120601f850160051c810160208610156118e55750805b601f850160051c820191505b818110156110d2578281556001016118f1565b815167ffffffffffffffff81111561191e5761191e611690565b6119328161192c8454611855565b846118be565b602080601f831160018114611967576000841561194f5750858301515b600019600386901b1c1916600185901b1785556110d2565b600085815260208120601f198616915b8281101561199657888601518255948401946001909101908401611977565b50858210156119b45787850151600019600388901b60f8161c191681555b5050505050600190811b01905550565b6040815260006119d7604083018561153d565b90508260208301529392505050565b6001600160a01b0385811682528416602082015260408101839052608060608201819052600090611a199083018461153d565b9695505050505050565b600060208284031215611a3557600080fd5b8151610a69816114e6565b8082018082111561044557634e487b7160e01b600052601160045260246000fdfea2646970667358221220ea21f378990a24d12fe5135c0494ad2e25b3ab509e846ed71407e37c18108df664736f6c63430008150033",
  "linkReferences": {},
  "deployedLinkReferences": {}
}